:020000040800F2
:1000000000000220655A0008B55A0008B55A0008D9
:10001000B55A0008B55A0008B55A0008000000009B
:10002000000000000000000000000000613D00082A
:10003000B55A000800000000013E0008FD59000804
:10004000B55A0008B55A0008B55A0008B55A000854
:10005000B55A0008B55A0008B55A0008B55A000844
:10006000B55A0008B55A0008B55A0008B55A000834
:10007000B55A0008B55A0008B55A0008B55A000824
:10008000B55A0008B55A0008B55A0008B55A000814
:10009000B55A0008B55A0008B55A0008B55A000804
:1000A000B55A0008B55A0008B55A0008B55A0008F4
:1000B000B55A0008B55A0008B55A0008B55A0008E4
:1000C000B55A0008B55A0008B55A0008B55A0008D4
:1000D000B55A0008B55A0008095A0008B55A000870
:1000E000B55A0008B55A0008B55A0008B55A0008B4
:1000F000B55A0008B55A0008B55A0008B55A0008A4
:10010000B55A0008B55A0008B55A0008B55A000893
:10011000B55A0008B55A0008B55A0008B55A000883
:10012000B55A0008B55A0008B55A0008B55A000873
:10013000B55A0008B55A0008B55A0008B55A000863
:10014000B55A0008B55A0008B55A0008B55A000853
:10015000B55A0008B55A0008B55A0008B55A000843
:10016000B55A0008B55A0008B55A0008B55A000833
:10017000B55A0008B55A0008B55A0008000000003A
:08018000B55A0008B55A000849
:1001900010B5054C237833B9044B13B10448AFF3C1
:1001A00000800123237010BD200200200000000009
:1001B000CC76000808B5034B1BB103490348AFF3E5
:1001C000008008BD0000000024020020CC7600085A
:1001D00081F0004102E000BF83F0004330B54FEAF8
:1001E00041044FEA430594EA050F08BF90EA020F65
:1001F0001FBF54EA000C55EA020C7FEA645C7FEAF8
:10020000655C00F0E2804FEA5454D4EB5555B8BF1A
:100210006D420CDD2C4480EA020281EA030382EA8B
:10022000000083EA010180EA020281EA0303362D1D
:1002300088BF30BD11F0004F4FEA01314FF4801CF0
:100240004CEA113102D0404261EB410113F0004F02
:100250004FEA03334CEA133302D0524263EB4303B9
:1002600094EA050F00F0A780A4F10104D5F1200E57
:100270000DDB02FA0EFC22FA05F2801841F10001B2
:1002800003FA0EF2801843FA05F359410EE0A5F186
:1002900020050EF1200E012A03FA0EFC28BF4CF0B7
:1002A000020C43FA05F3C01851EBE37101F000456D
:1002B00007D54FF0000EDCF1000C7EEB00006EEB7A
:1002C0000101B1F5801F1BD3B1F5001F0CD3490804
:1002D0005FEA30004FEA3C0C04F101044FEA44525B
:1002E00012F5800F80F09A80BCF1004F08BF5FEAE2
:1002F000500C50F1000041EB045141EA050130BDC2
:100300005FEA4C0C404141EB010111F4801FA4F164
:100310000104E9D191F0000F04BF01460020B1FAB9
:1003200081F308BF2033A3F10B03B3F120020CDAF1
:100330000C3208DD02F1140CC2F10C0201FA0CF0CF
:1003400021FA02F10CE002F11402D8BFC2F1200C34
:1003500001FA02F120FA0CFCDCBF41EA0C019040EA
:10036000E41AA2BF01EB0451294330BD6FEA040433
:100370001F3C1CDA0C340EDC04F11404C4F120021E
:1003800020FA04F001FA02F340EA030021FA04F330
:1003900045EA030130BDC4F10C04C4F1200220FA87
:1003A00002F001FA04F340EA0300294630BD21FAC5
:1003B00004F0294630BD94F0000F83F4801306BF8B
:1003C00081F480110134013D4EE77FEA645C18BF7F
:1003D0007FEA655C29D094EA050F08BF90EA020F16
:1003E00005D054EA000C04BF1946104630BD91EA0E
:1003F000030F1EBF0021002030BD5FEA545C05D111
:100400004000494128BF41F0004130BD14F580044F
:100410003CBF01F5801130BD01F0004545F0FE41C3
:1004200041F470014FF0000030BD7FEA645C1ABFF8
:10043000194610467FEA655C1CBF0B46024650EA2F
:10044000013406BF52EA033591EA030F41F400215B
:1004500030BD00BF90F0000F04BF0021704730B5E1
:100460004FF4806404F132044FF000054FF00001B6
:1004700050E700BF90F0000F04BF0021704730B577
:100480004FF4806404F1320410F0004548BF40424C
:100490004FF000013EE700BF42004FEAE2014FEAA1
:1004A00031014FEA02701FBF12F07F4393F07F4F7C
:1004B00081F06051704732F07F4208BF704793F07F
:1004C0007F4F04BF41F40021704730B54FF4607492
:1004D00001F0004521F000411CE700BF50EA010295
:1004E00008BF704730B54FF000050AE050EA01023E
:1004F00008BF704730B511F0004502D5404261EBAE
:1005000041014FF4806404F132045FEA915C3FF4EE
:10051000D8AE4FF003025FEADC0C18BF03325FEA8B
:10052000DC0C18BF033202EBDC02C2F1200300FA3C
:1005300003FC20FA02F001FA03FE40EA0E0021FA61
:1005400002F11444BDE600BF70B54FF0FF0C4CF44F
:10055000E06C1CEA11541DBF1CEA135594EA0C0F01
:1005600095EA0C0F00F0DEF82C4481EA030621EA3C
:100570004C5123EA4C5350EA013518BF52EA033577
:1005800041F4801143F4801338D0A0FB02CE4FF029
:100590000005E1FB02E506F00042E0FB03E54FF059
:1005A0000006E1FB03569CF0000F18BF4EF0010E51
:1005B000A4F1FF04B6F5007F64F5407404D25FEA4D
:1005C0004E0E6D4146EB060642EAC62141EA555100
:1005D0004FEAC52040EA5E504FEACE2EB4F1FD0C42
:1005E00088BFBCF5E06F1ED8BEF1004F08BF5FEAC0
:1005F000500E50F1000041EB045170BD06F0004672
:1006000046EA010140EA020081EA0301B4EB5C041E
:10061000C2BFD4EB0C0541EA045170BD41F4801116
:100620004FF0000E013C00F3AB8014F1360FDEBF3B
:10063000002001F0004170BDC4F10004203C35DA17
:100640000C341BDC04F11404C4F1200500FA05F39A
:1006500020FA04F001FA05F240EA020001F000423B
:1006600021F0004110EBD37021FA04F642EB0601B1
:100670005EEA430E08BF20EAD37070BDC4F10C04DB
:10068000C4F1200500FA04F320FA05F001FA04F29F
:1006900040EA020001F0004110EBD37041F100018B
:1006A0005EEA430E08BF20EAD37070BDC4F1200596
:1006B00000FA05F24EEA020E20FA04F301FA05F2FE
:1006C00043EA020321FA04F001F0004121FA04F2A6
:1006D00020EA020000EBD3705EEA430E08BF20EA76
:1006E000D37070BD94F0000F0FD101F000464000B0
:1006F00041EB010111F4801F08BF013CF7D041EA32
:10070000060195F0000F18BF704703F00046520035
:1007100043EB030313F4801F08BF013DF7D043EA06
:100720000603704794EA0C0F0CEA135518BF95EABC
:100730000C0F0CD050EA410618BF52EA4306D1D143
:1007400081EA030101F000414FF0000070BD50EA62
:10075000410606BF1046194652EA430619D094EAEC
:100760000C0F02D150EA013613D195EA0C0F05D1D6
:1007700052EA03361CBF104619460AD181EA03012A
:1007800001F0004141F0FE4141F470014FF00000E2
:1007900070BD41F0FE4141F4780170BD70B54FF07D
:1007A000FF0C4CF4E06C1CEA11541DBF1CEA1355FD
:1007B00094EA0C0F95EA0C0F00F0A7F8A4EB0504DF
:1007C00081EA030E52EA03354FEA013100F08880D6
:1007D0004FEA03334FF0805545EA131343EA12639F
:1007E0004FEA022245EA111545EA10654FEA002654
:1007F0000EF000419D4208BF964244F1FD0404F50D
:10080000407402D25B084FEA3202B61A65EB030568
:100810005B084FEA32024FF480104FF4002CB6EB25
:10082000020E75EB030E22BFB61A754640EA0C00A5
:100830005B084FEA3202B6EB020E75EB030E22BFE5
:10084000B61A754640EA5C005B084FEA3202B6EB26
:10085000020E75EB030E22BFB61A754640EA9C00E5
:100860005B084FEA3202B6EB020E75EB030E22BFB5
:10087000B61A754640EADC0055EA060E18D04FEA73
:10088000051545EA16754FEA06164FEAC30343EA13
:1008900052734FEAC2025FEA1C1CC0D111F4801FE0
:1008A0000BD141EA00014FF000004FF0004CB6E7D9
:1008B00011F4801F04BF01430020B4F1FD0C88BF78
:1008C000BCF5E06F3FF6AFAEB5EB030C04BFB6EB83
:1008D000020C5FEA500C50F1000041EB045170BD76
:1008E0000EF0004E4EEA113114EB5C04C2BFD4EBA3
:1008F0000C0541EA045170BD41F480114FF0000E27
:10090000013C90E645EA060E8DE60CEA135594EAA2
:100910000C0F08BF95EA0C0F3FF43BAF94EA0C0FA5
:100920000AD150EA01347FF434AF95EA0C0F7FF41A
:1009300025AF104619462CE795EA0C0F06D152EA6E
:1009400003353FF4FDAE1046194622E750EA410652
:1009500018BF52EA43067FF4C5AE50EA41047FF463
:100960000DAF52EA43057FF4EBAE12E74FF0FF3CC8
:1009700006E000BF4FF0010C02E000BF4FF0010C99
:100980004DF804CD4FEA410C7FEA6C5C4FEA430C12
:1009900018BF7FEA6C5C1BD001B050EA410C0CBF61
:1009A00052EA430C91EA030F02BF90EA020F0020C3
:1009B000704710F1000F91EA030F58BF994208BF2A
:1009C00090422CBFD8176FEAE37040F001007047E7
:1009D0004FEA410C7FEA6C5C02D150EA013C07D13E
:1009E0004FEA430C7FEA6C5CD6D152EA033CD3D089
:1009F0005DF8040B704700BF8446104662468C4683
:100A00001946634600E000BF01B5FFF7B7FF0028B5
:100A100048BF10F1000F01BD4DF808EDFFF7F4FFDE
:100A20000CBF012000205DF808FB00BF4DF808ED69
:100A3000FFF7EAFF34BF012000205DF808FB00BF8C
:100A40004DF808EDFFF7E0FF94BF012000205DF8AE
:100A500008FB00BF4DF808EDFFF7CEFF94BF012063
:100A600000205DF808FB00BF4DF808EDFFF7C4FF5C
:100A700034BF012000205DF808FB00BF4FEA410CA5
:100A80007FEA6C5C02D150EA013C0AD14FEA430C88
:100A90007FEA6C5C02D152EA033C02D14FF00000C5
:100AA00070474FF0010070474A0011D212F5001252
:100AB00011D20DD56FF47873B3EB62520ED44FEAB6
:100AC000C12343F0004343EA505323FA02F0704736
:100AD0004FF00000704750EA013002D14FF0FF3074
:100AE00070474FF0000070474FEA4102B2F1E04317
:100AF00024BFB3F5001CDCF1FE5C0DD901F0004C05
:100B00004FEAC0024CEA5070B2F1004F40EB830054
:100B100008BF20F00100704711F0804F21D113F180
:100B20003872BCBF01F00040704741F480114FEAB9
:100B30005252C2F11802C2F1200C10FA0CF320FA42
:100B400002F018BF40F001004FEAC1234FEAD3235F
:100B500003FA0CFC40EA0C0023FA02F34FEA4303C9
:100B6000CCE77FEA625307D150EA01331EBF4FF052
:100B7000FE4040F44000704701F0004040F0FE406D
:100B800040F40000704700BF53B94AB9002908BFBC
:100B900000281CBF4FF0FF314FF0FF3000F072B95A
:100BA000ADF1080C6DE904CE00F006F8DDF804E0C4
:100BB000DDE9022304B070472DE9F047089E0446A2
:100BC0008846002B4BD18A42154667D9B2FA82F289
:100BD0004AB1C2F1200701FA02F320FA07F7954063
:100BE00047EA030894404FEA154E230CB8FBFEF782
:100BF0001FFA85FC0EFB178843EA084307FB0CF13C
:100C0000994209D9EB1807F1FF3080F01B81994216
:100C100040F21881023F2B445B1AA4B2B3FBFEF0F2
:100C20000EFB103344EA034400FB0CFCA44509D935
:100C30002C1900F1FF3380F00781A44540F20481B4
:100C400002382C4440EA0740A4EB0C0400271EB1F4
:100C5000D4400023C6E900433946BDE8F0878B4203
:100C600009D9002E00F0EB800027C6E900013846C4
:100C70003946BDE8F087B3FA83F7002F47D18B429E
:100C800002D3824200F2FA80841A61EB030301204E
:100C90009846002EE0D0C6E90048DDE702B9FFDE45
:100CA000B2FA82F2002A40F08F80491B4FEA154EBB
:100CB0001FFA85F80127B1FBFEFC230C0EFB1C116B
:100CC00043EA014308FB0CF1994207D9EB180CF1F8
:100CD000FF3002D2994200F2CD808446591AA3B265
:100CE000B1FBFEF00EFB101443EA044408FB00F8CD
:100CF000A04507D92C1900F1FF3302D2A04500F21C
:100D0000B6801846A4EB080440EA0C409FE7C7F100
:100D1000200CBB4022FA0CFE4EEA030E01FA07F447
:100D200020FA0CF521FA0CF34FEA1E482543B3FBD9
:100D3000F8F92C0C08FB19331FFA8EFA44EA034326
:100D400009FB0AF49C4202FA07F200FA07F10BD9F8
:100D50001EEB030309F1FF3080F087809C4240F2D4
:100D60008480A9F1020973441B1BADB2B3FBF8F0F8
:100D700008FB103345EA034400FB0AFAA24508D9F0
:100D80001EEB040400F1FF336BD2A24569D902388F
:100D9000744440EA0940A0FB0289A4EB0A044C45D4
:100DA000C2464B4654D351D0002E69D0B1EB0A0550
:100DB00064EB030404FA0CFCFD40FC404CEA05051E
:100DC000C6E90054002747E7C2F1200320FA03F7E1
:100DD000954001FA02F021FA03F34FEA154E384329
:100DE000010CB3FBFEF71FFA85F80EFB173341EA3F
:100DF000034107FB08F38B4204FA02F407D9691890
:100E000007F1FF3C2FD28B422DD9023F2944CB1A48
:100E100081B2B3FBFEF00EFB103341EA034100FB4D
:100E200008F38B4207D9691800F1FF3C17D28B42B7
:100E300015D902382944C91A40EA07473BE7374623
:100E4000304609E70746E7E61846FBE64145ABD2E0
:100E5000B8EB020A69EB0E0201381346A4E76046BC
:100E6000E9E7184695E76746D1E781467CE702380F
:100E70002C4447E7ACF1020C2B442FE7384608E737
:100E80003746E9E6704700BF034613F8012B002AF6
:100E9000FBD1181A01387047000000000000000064
:100EA00001F0FF01102A2BDB10F0070F08D010F81B
:100EB000013B013A8B422DD010F0070F42B3F6D11F
:100EC000F0B441EA012141EA014122F007047FF038
:100ED00000070023F0E80256083C85EA010586EA8F
:100EE000010685FA47F5A3FA87F586FA47F6A5FACB
:100EF00087F68EB9EED1F0BC01F0FF0102F00702D7
:100F000032B110F8013B013A83EA010313B1F8D181
:100F10000020704701387047002D06BF3546033862
:100F2000073815F0010F07D1013015F4807F02BF9B
:100F3000013015F4C03F0130F0BC0138704700BFEC
:100F400010B504460E4B18784FF47A73B3FBF0F3E8
:100F50000C4A1068B0FBF3F000F082F868B90F2C6F
:100F600001D901200AE0002221464FF0FF3000F0B5
:100F700037F8034B5C60002000E0012010BD00BF8B
:100F8000000000204800002008B50B4B1A6842F40E
:100F900000721A601A6842F480621A601A6842F499
:100FA00080721A60032000F009F80F20FFF7C8FFD5
:100FB00004F076FC002008BD003C0240074AD368DC
:100FC00023F4E0631B041B0C000200F4E0601843F0
:100FD00040F0BF6040F40030D060704700ED00E0AA
:100FE00030B4174BDB68C3F30223C3F10704042CAE
:100FF00028BF04241D1D062D18D9033B4FF0FF35D3
:1010000005FA04F421EA0401994005FA03F322EAFF
:101010000303194300280BDB0901C9B200F160404A
:1010200000F5614080F8001330BC70470023E5E70D
:1010300000F00F000901C9B2024B1954F4E700BFD8
:1010400000ED00E014ED00E000F01F024009012374
:101050009340024A42F82030704700BF00E100E0B0
:101060000138B0F1807F0AD2064B5860064AF02161
:1010700082F823100020986007221A607047012030
:10108000704700BF10E000E000ED00E0042805D04C
:10109000054A136823F0040313607047024A13687B
:1010A00043F004031360704710E000E090F835301F
:1010B000DBB2022B03D08023436501207047052358
:1010C00080F835300268136823F0010313600020B4
:1010D0007047000000230F2B00F2D780F0B482B0DD
:1010E00039E0072200E00022B2403A430234674E62
:1010F00046F82420664A1468EA4302EA04064F6868
:1011000017F4803F01D045EA0406614C266064680C
:1011100002EA04064F6817F4003F01D045EA0406CE
:101120005B4C6660A46802EA04064F6817F4801FEF
:1011300001D045EA0406564CA660E46822404E6899
:1011400016F4001F01D045EA0402514CE26001335D
:101150000F2B00F2978001229A400C6804EA0205E6
:10116000AA42F4D14C68022C01D0122C10D1DE0816
:10117000083650F826C003F00704A7000F24BC402F
:101180002CEA040C0C69BC4044EA0C0440F82640EC
:1011900004685F000326BE40F64306EA040C4C6870
:1011A00004F00304BC4044EA0C0404604C6804F1FD
:1011B000FF3CBCF1010F03D9112C01D0122C10D12E
:1011C000846806EA040CCC68BC4044EA0C048460E1
:1011D000446824EA02024C68C4F300149C4014439F
:1011E0004460C26816408A68BA403243C2604A68A6
:1011F00012F0805FABD000220192264A546C44F476
:1012000080445464526C02F480420192019A9C081A
:10121000A61C1E4A52F8267003F0030296000F2205
:10122000B24027EA02071C4A90423FF45CAF02F545
:10123000806290421AD002F58062904218D002F586
:101240008062904216D002F58062904214D002F57E
:101250008062904212D002F58062904210D002F576
:10126000806290423FF43DAF08223DE701223BE718
:10127000022239E7032237E7042235E7052233E764
:10128000062231E702B0F0BC7047704700380140D9
:10129000003C01400038024000000240002800F0FD
:1012A000BB8170B582B00446036813F0010F3BD0D8
:1012B000A74B9B6803F00C03042B2CD0A44B9B681A
:1012C00003F00C03082B21D06368B3F5803F4FD0A7
:1012D000B3F5A02F52D09E4B1A6822F480321A60C8
:1012E0001A6822F480221A606368002B50D002F042
:1012F000E5FF0546964B1B6813F4003F14D102F03E
:10130000DDFF401B6428F5D903208AE1904B5B6820
:1013100013F4800FD8D08E4B1B6813F4003F03D01A
:101320006368002B00F07A81236813F0020F55D018
:10133000874B9B6813F00C0F3ED0854B9B6803F0E6
:101340000C03082B33D0E368002B68D0814B0122BB
:101350001A6002F0B3FF05467D4B1B6813F0020FC5
:1013600054D102F0ABFF401B0228F5D9032058E10D
:10137000774A136843F480331360B5E7744B1A68F7
:1013800042F480221A601A6842F480321A60ABE795
:1013900002F094FF05466E4B1B6813F4003FC3D068
:1013A00002F08CFF401B6428F5D9032039E1684B1B
:1013B0005B6813F4800FC6D1654B1B6813F0020FF6
:1013C00004D0E368012B01D001202AE1604A1368B0
:1013D00023F0F803216943EAC1031360236813F083
:1013E000080F40D0636963B35B4B01221A6002F0BF
:1013F00065FF0546564B5B6F13F0020F33D102F0C9
:101400005DFF401B0228F5D903200AE1504A13680A
:1014100023F0F803216943EAC1031360DEE74D4B73
:1014200000221A6002F04AFF0546494B1B6813F080
:10143000020FD3D002F042FF401B0228F5D903204F
:10144000EFE0454B00221A6002F038FF0546404BA2
:101450005B6F13F0020F06D002F030FF401B022832
:10146000F5D90320DDE0236813F0040F79D0384B61
:101470001B6C13F0805F33D100230193344B1A6C43
:1014800042F080521A641B6C03F080530193019B5D
:101490000125324B1B6813F4807F23D0A368012BF6
:1014A00034D0052B38D02A4B1A6F22F001021A676C
:1014B0001A6F22F004021A67A368002B36D002F0DC
:1014C000FDFE0646224B1B6F13F0020F48D102F0BF
:1014D000F5FE801B41F288339842F3D90320A0E047
:1014E0000025D6E71D4A136843F48073136002F0A9
:1014F000E5FE0646194B1B6813F4807FCED102F03F
:10150000DDFE801B0228F5D903208AE0104A136F04
:1015100043F001031367CFE70D4B1A6F42F004024B
:101520001A671A6F42F001021A67C5E702F0C6FE99
:101530000646074B1B6F13F0020F11D002F0BEFEE0
:10154000801B41F288339842F3D9032069E000BF41
:101550000038024000004742800E474200700040C1
:10156000E5B9A369002B5BD0304A926802F00C0207
:10157000082A58D0022B17D02D4B00221A6002F0F7
:101580009DFE0446294B1B6813F0007F42D002F0F9
:1015900095FE001B0228F5D9032042E0234A136C74
:1015A00023F080531364DCE7214B00221A6002F021
:1015B00085FE05461D4B1B6813F0007F06D002F028
:1015C0007DFE401B0228F5D903202AE0E369226A48
:1015D0001343626A43EA8213A26A5208013A43EA59
:1015E0000243E26A43EA0263104A5360104B01224D
:1015F0001A6002F063FE04460C4B1B6813F0007F78
:1016000006D102F05BFE001B0228F5D9032008E09A
:10161000002006E0002004E001207047012000E0E7
:10162000002002B070BD0120FBE700BF003802407F
:1016300060004742324B9B6803F00C03042B5CD0E4
:10164000082B01D02F4870472DE9F04B2C4B5A68DE
:1016500002F03F025B6813F4800F2BD0284B5B68CD
:10166000C3F388131E4600275C010025E41A65EBCE
:101670000705A90141EA9461A001001B61EB050186
:10168000CB0043EA5073C400A01943EB07014B029F
:1016900043EAD0534402204619460023FFF774FA68
:1016A000174B5B68C3F3014301335B00B0FBF3F0FE
:1016B000BDE8F08B124B5B68C3F388131E4600270E
:1016C0005C010025E41A65EB0705A90141EA946174
:1016D000A001001B61EB0501CB0043EA5073C4007D
:1016E000A01943EB07018B0243EA90538402204682
:1016F00019460023FFF748FAD2E70348704700BFB6
:10170000003802400024F40000127A00002800F0A3
:101710009D8070B504464F4B1B6803F00F038B424E
:1017200009D2CBB24B4A1370136803F00F038B42FC
:1017300001D0012070BD236813F0020F17D013F001
:10174000040F04D0444A936843F4E0539360236841
:1017500013F0080F04D0404A936843F46043936049
:101760003D4A936823F0F003A068034393600D465D
:10177000236813F0010F32D06368012B21D09A1E29
:10178000012A25D9344A126812F0020F60D032497A
:101790008A6822F0030213438B6002F08FFD064635
:1017A0002D4B9B6803F00C036268B3EB820F16D0DD
:1017B00002F084FD801B41F288339842F0D9032067
:1017C000B8E7254A126812F4003FE0D10120B1E7E2
:1017D000214A126812F0007FD9D10120AAE71D4BDF
:1017E0001B6803F00F03AB4209D9EAB2194B1A7018
:1017F0001B6803F00F03AB4201D001209AE7236876
:1018000013F0040F06D0144A936823F4E053E16800
:101810000B439360236813F0080F07D00E4A9368B8
:1018200023F46043216943EAC1039360FFF702FF99
:10183000094B9B68C3F30313084AD35CD840084B99
:1018400018600F20FFF77CFB002073E70120704732
:1018500001206FE7003C024000380240007700089A
:1018600048000020014B1868704700BF4800002066
:1018700008B5FFF7F7FF044B9B68C3F38223034AC5
:10188000D35CD84008BD00BF003802401077000884
:1018900008B5FFF7E7FF044B9B68C3F34233034AE5
:1018A000D35CD84008BD00BF003802401077000864
:1018B00070B4036A23F001030362036A4268846917
:1018C00024F073040D6845EA040623F002048B68D3
:1018D00023430C4DA84202D00B4CA0420BD123F065
:1018E0000803CD682B4323F0040322F440724D69B2
:1018F00015438A692A43426086614A6842630362EB
:1019000070BC7047000001400004014030B4036A1D
:1019100023F480730362036A4268C46924F0730489
:101920000D682C4323F400738D6843EA05230E4DA4
:10193000A84203D005F58065A8420ED123F40063C8
:10194000CD6843EA052323F4806322F440524D69B5
:1019500042EA05128D6942EA05124260C4614A6892
:10196000C263036230BC70470000014030B4036AB8
:1019700023F480530362036A4468C26922F4E64296
:101980000D6842EA052223F400538D6843EA0533CB
:10199000094DA84203D005F58065A84204D124F47E
:1019A00080444D6944EA85144460C2614A68026417
:1019B000036230BC704700BF0000014010B4036AEE
:1019C000046A24F001040462846924F0F00444EA07
:1019D000021223F00A030B43826103625DF8044B99
:1019E000704710B4036A23F0100303628469036A2A
:1019F00024F4704444EA023223F0A00343EA0113C2
:101A0000826103625DF8044B7047836823F07003C2
:101A100041F0070119438160704710B4846824F4D1
:101A20007F4442EA03230B43234383605DF8044B66
:101A30007047704790F83830012B7DD010B50446C0
:101A4000012380F83830022380F839300268936827
:101A500023F47F4323F0770393600B68402B57D028
:101A600010D9702B3ED01FD8502B47D0602B32D1CD
:101A7000CA6849680068FFF7B4FF60212068FFF773
:101A8000C4FF28E0102B4DD008D9202B4FD0302B8D
:101A900021D130210068FFF7B8FF1CE0DBB900213D
:101AA0000068FFF7B2FF16E0B3F5805F0ED0B3F524
:101AB000005F10D1CB684A6889680068FFF7ADFF06
:101AC0002268936843F48043936004E0026893685B
:101AD00023F007039360012384F83930002084F851
:101AE000380010BDCB684A6889680068FFF795FF29
:101AF0002268936843F077039360ECE7CA6849680B
:101B00000068FFF75BFF50212068FFF77EFFE2E7E8
:101B1000CA6849680068FFF751FF40212068FFF755
:101B200074FFD8E710210068FFF76FFFD3E720218B
:101B30000068FFF76AFFCEE70220704703682E4A6D
:101B4000904212D0B0F1804F0FD0A2F57C4290426B
:101B50000BD002F58062904207D002F5806290427D
:101B600003D002F57842904203D123F070034A6813
:101B70001343214A90422AD0B0F1804F27D0A2F5DA
:101B80007C42904223D002F5806290421FD002F541
:101B9000806290421BD002F57842904217D002F545
:101BA0007052904213D002F5806290420FD002F53D
:101BB000806290420BD0A2F59832904207D002F595
:101BC0008062904203D002F58062904203D123F4F8
:101BD0004073CA68134303608B68C3620B688362F7
:101BE000054B984203D003F58063984201D10B69FD
:101BF000036301234361704700000140A8B110B5A1
:101C0000044690F839305BB1022384F83930211D45
:101C10002068FFF793FF012384F83930002010BDBE
:101C200080F8383003F086FEEEE701207047A8B157
:101C300010B5044690F839305BB1022384F839308E
:101C4000211D2068FFF77AFF012384F83930002036
:101C500010BD80F83830FFF7ECFEEEE7012070474A
:101C600030B4036A23F010030362036A4468826994
:101C700022F4E6420D6842EA052223F020038D6833
:101C800043EA05130E4DA84203D005F58065A8422E
:101C90000ED123F08003CD6843EA051323F04003FF
:101CA00024F440644D6944EA85048D6944EA85045E
:101CB000446082614A688263036230BC704700BF3F
:101CC0000000014038B590F83830012B66D00D4641
:101CD0000446012380F83830022380F839300C2A7A
:101CE0001AD8DFE802F0071919192019191934193F
:101CF000191947000068FFF7DBFD2268936943F07C
:101D0000080393612268936923F0040393612268B6
:101D1000936929690B439361012384F839300020CA
:101D200084F8380038BD0068FFF79AFF226893698D
:101D300043F4006393612268936923F480639361A1
:101D400022689369296943EA01239361E4E7006803
:101D5000FFF7DCFD2268D36943F00803D3612268F2
:101D6000D36923F00403D3612268D36929690B4343
:101D7000D361D1E70068FFF7F9FD2268D36943F426
:101D80000063D3612268D36923F48063D36122683E
:101D9000D369296943EA0123D361BDE70220C1E782
:101DA00010B4012303FA01F4036A23EA0403036273
:101DB000036A8A40134303625DF8044B70470000D6
:101DC00010B5044601220068FFF7EAFF2368094ABC
:101DD000934203D002F58062934203D15A6C42F4DD
:101DE00000425A642268136843F001031360002024
:101DF00010BD00BF0000014090F83830012B22D008
:101E000030B4012280F83820022380F83930046889
:101E1000636823F070036360046863680D682B4394
:101E200063600468A36823F08003A3600468A36868
:101E300049680B43A36080F83920002380F83830CC
:101E4000184630BC7047022070470268D36823F4FC
:101E50009073D3600268536923F001035361202318
:101E600080F83A30704790F83930DBB2212B2AD114
:101E70008368B3F5805F16D0036A5A1C02621A7831
:101E800003685A60C38C013B9BB2C384EBB9026800
:101E9000D36823F08003D3600268D36843F0400323
:101EA000D36000207047036A1B880268C3F30803ED
:101EB000536003691BB9036A02330362E2E7036AF2
:101EC00001330362DEE70220704700207047000004
:101ED0002DE9F843044601680A6922F44052C368B8
:101EE00013430B610168CA6822F4164222F00C0207
:101EF00083680069034360690343E0690343134354
:101F0000CB6021684A6922F44072A36913434B6194
:101F1000E369B3F5004F60D02368B84A934200F0FC
:101F2000148102F58062934200F00F81FFF7A0FC5C
:101F300000EB800000EB80006568AD00B0FBF5F5BC
:101F4000AF4FA7FB05356D092E01FFF791FC00EBA4
:101F5000800000EB80006568AD00B0FBF5F9FFF78D
:101F600087FC00EB800000EB80006568AD00B0FBF3
:101F7000F5F5A7FB05356D094FF0640808FB1595CD
:101F80002D013235A7FB05356D0905F0F005354407
:101F9000FFF76EFC00EB800000EB80006668B60087
:101FA000B0FBF6F6FFF764FC00EB800000EB80006E
:101FB00063689B00B0FBF3F0A7FB0030400908FB0F
:101FC00010684FEA081808F13208A7FB0837C7F372
:101FD000431723682F449F600DE12368874A93428B
:101FE0005BD002F58062934257D0FFF741FC00EBD3
:101FF000800000EB800065686D00B0FBF5F5804F58
:10200000A7FB05356D092E01FFF732FC00EB8000C0
:1020100000EB800065686D00B0FBF5F9FFF728FC68
:1020200000EB800000EB800065686D00B0FBF5F50B
:10203000A7FB05356D094FF0640808FB1595ED0009
:102040003235A7FB05356D096D0005F4F87535448B
:10205000FFF70EFC00EB800000EB80006668760066
:10206000B0FBF6F6FFF704FC00EB800000EB80000D
:1020700063685B00B0FBF3F3A7FB03235B0908FB7A
:1020800013684FEAC80808F13208A7FB0837C7F3FE
:10209000421723682F449F60ADE0FFF7F9FB00EB88
:1020A000800000EB800065686D00B0FBF5F5544FD3
:1020B000A7FB05356D092E01FFF7EAFB00EB800059
:1020C00000EB800065686D00B0FBF5F9FFF7E0FB01
:1020D00000EB800000EB800065686D00B0FBF5F55B
:1020E000A7FB05356D094FF0640808FB1595ED0059
:1020F0003235A7FB05356D096D0005F4F8753544DB
:10210000FFF7C6FB00EB800000EB800066687600FE
:10211000B0FBF6F6FFF7BCFB00EB800000EB8000A5
:1021200063685B00B0FBF3F3A7FB03235B0908FBC9
:1021300013684FEAC80808F13208A7FB0837C7F34D
:10214000421723682F449F6055E0FFF7A1FB00EB87
:10215000800000EB80006568AD00B0FBF5F5284F0E
:10216000A7FB05356D092E01FFF792FB00EB800000
:1021700000EB80006568AD00B0FBF5F9FFF788FB68
:1021800000EB800000EB80006568AD00B0FBF5F56A
:10219000A7FB05356D094FF0640808FB15952D0167
:1021A0003235A7FB05356D0905F0F0053544FFF71D
:1021B0006FFB00EB800000EB80006668B600B0FBB0
:1021C000F6F6FFF765FB00EB800000EB800063682C
:1021D0009B00B0FBF3F0A7FB0030400908FB106840
:1021E0004FEA081808F13208A7FB0837C7F343176E
:1021F00023682F449F60BDE8F88300BF00100140B2
:102200001F85EB512DE9F04105460F4616469846CD
:10221000069C2B681B6837EA03030CBF01230023CD
:10222000B3421DD1B4F1FF3FF3D02CB102F046F818
:10223000A0EB0800A042ECD92A68D36823F4D0733D
:10224000D3602A68536923F001035361202385F882
:10225000393085F83A30002385F83830032000E023
:102260000020BDE8F08158B310B5044690F839302D
:102270000BB3242384F839302268D36823F4005345
:10228000D3602046FFF724FE2268136923F49043AD
:1022900013612268536923F02A0353612268D368CB
:1022A00043F40053D3600020E063202384F83930E6
:1022B00084F83A3010BD80F8383003F06FFBD8E76F
:1022C000012070472DE9F04182B01E4690F8393068
:1022D000DBB2202B55D104460D469046002955D03F
:1022E000002A55D090F83830012B53D0012380F8C4
:1022F00038300023C363212380F8393001F0DEFF3A
:102300000746A4F82480A4F8268010E000963B46F7
:10231000002280212046FFF775FF00283CD12B8842
:102320002268C3F3080353602369C3B90235E38C01
:102330009BB2B3B1E38C013B9BB2E384A368B3F5DA
:10234000805FE3D000963B46002280212046FFF7C5
:1023500059FF18BB2A7823685A600135E7E7013531
:10236000E5E700963B46002240212046FFF74AFF62
:102370000346A8B9202284F83920002284F83820A6
:1023800000E00223184602B0BDE8F0810123F9E71E
:102390000123F7E70223F5E70323F3E70323F1E73C
:1023A0000323EFE790F83A30DBB2202B1BD1E1B1E9
:1023B000EAB190F83830012B1BD081628285C2854A
:1023C0000023C363222280F83A2080F83830016865
:1023D0004A6942F001024A610168CA6842F4907297
:1023E000CA601846704702207047012070470120DC
:1023F000704702207047704708B50168CB6823F02A
:102400004003CB60202380F83930FFF7F4FF002031
:1024100008BD08B590F83A30DBB2222B40D1836872
:10242000B3F5805F0ED0036903BB03685A68836A03
:10243000591C81621A70C38D013B9BB2C385F3B1F5
:1024400000202EE0826A036943B903685B68C3F326
:1024500008031380836A02338362ECE703685B68D6
:10246000DBB21380836A01338362E4E703685B684D
:10247000826A511C816203F07F031370DBE70268FC
:10248000D36823F49073D3600268536923F0010387
:102490005361202380F83A3002F0A6FF002000E0CC
:1024A000022008BD7047000010B50446026813689A
:1024B000D168526913F00F0005D113F0200F02D03C
:1024C00011F0200F53D1002867D012F0010202D181
:1024D00011F4907F61D013F0010F06D011F4807FCA
:1024E00003D0E06B40F00100E06313F0040F04D070
:1024F0001AB1E06B40F00200E06313F0020F04D069
:102500001AB1E06B40F00400E06313F0080F04D050
:102510001AB1E26B42F00802E263E26B002A48D093
:1025200013F0200F02D011F0200F24D123685B6933
:1025300003F04003E26B12F0080F00D13BB32046DA
:10254000FFF783FC23685A6912F0400F1BD05A69C9
:1025500022F040025A61636B8BB11A4A1A65606BB4
:10256000FEF7A4FD28B3606B036D984721E0204679
:10257000FFF74FFF1DE02046FFF74BFFD6E7204651
:10258000FFF790FF15E02046FFF78CFF11E0204693
:10259000FFF788FF0023E3630BE013F0800F02D006
:1025A00011F0800F06D113F0400F02D011F0400F50
:1025B00004D110BD2046FFF756FCFAE72046FFF78E
:1025C0001BFFF6E7C925000808B5806B0023C3850B
:1025D000C384FFF767FF08BD842801D0033070472C
:1025E00000207047EFF30580003018BF01207047CE
:1025F00008B500F09FFD002008BDF0B585B00F467E
:10260000446805680669B0F90800FFF7E5FF03AB09
:10261000019300903B46B2B22946204600F058FD97
:10262000012802D1039805B0F0BD0020FBE708B5F2
:10263000034600B90123184600F0C8FE002008BD7B
:1026400000B583B01346012909D00022016800912A
:102650000121044801F0AAF903B05DF804FB01224E
:10266000F4E700BF1C77000830B585B005460023AD
:1026700003930C4601B90124FFF7B4FFA8B100236E
:10268000009303AB22460921284601F0A9F901284D
:1026900017D1039BBBB10E4B4FF080521A60BFF3B2
:1026A0004F8FBFF36F8F002009E000230093224675
:1026B0000421284601F094F9012806D1002005B034
:1026C00030BDFF20FBE70020F9E7FF20F7E700BF60
:1026D00004ED00E010B584B0044600230393FFF737
:1026E00081FFA0B10022009203AB0821204601F037
:1026F00077F9012817D1039BBBB10E4B4FF08052E5
:102700001A60BFF34F8FBFF36F8F002009E00022E4
:10271000009213460321204601F062F9012806D1F8
:10272000002004B010BDFF20FBE70020F9E7FF20E8
:10273000F7E700BF04ED00E010B501290DD1032239
:102740000021012000F04AF9044620B100231A4676
:10275000194600F067F9204610BD0024FBE708B5D4
:1027600000F0B6FF012801D001F07CFB08BD00F1AC
:10277000080343604FF0FF328260C36003610023AF
:102780000360704700230361704743684B609A6899
:102790008A609A6851609960086103680133036038
:1027A000704730B40D68B5F1FF3F02D000F1080268
:1027B00002E0026904E01A4653681C68AC42FAD988
:1027C00053684B6099608A60516008610368013307
:1027D000036030BC70470369426881689160826819
:1027E000416851605A68824205D00022026118682F
:1027F00001381860704782685A60F6E710B50446E1
:1028000001F0C0FAA26BE36B9A4204D0002401F0FD
:10281000DBFA204610BD0124F9E710B5044601F0AB
:10282000B1FAA36B23B1002401F0CEFA204610BD0B
:102830000124F9E770B504461646856B026C5AB957
:1028400003681BB100200135A56370BD406800F02E
:10285000A5FF00236360F6E76EB9806804F05AFABA
:10286000226CA3681344A3606268934219D323685F
:10287000A3600020E7E7C06804F04CFA226C5242E3
:10288000E3681344E36021688B4202D263681A4410
:10289000E260022E01D00020D5E725B1013D0020E5
:1028A000D1E70020CFE70020CDE7026C72B110B570
:1028B000C3681344C3604468A34201D30368C36080
:1028C0000C46C168204604F025FA10BD704738B5A3
:1028D000054601F057FA95F8454064B203E000F070
:1028E000EFFE013C64B2002C08DD6B6A33B105F1E8
:1028F000240000F04FFE0028F3D0F0E7FF2385F816
:10290000453001F061FA01F03DFA95F8444064B2B7
:1029100003E000F0D5FE013C64B2002C08DD2B6919
:1029200033B105F1100000F035FE0028F3D0F0E7D8
:10293000FF2385F8443001F047FA38BD38B540B977
:102940004FF0500383F31188BFF36F8FBFF34F8FA6
:10295000FEE704460D4601F015FA2168E26B236C90
:1029600003FB021060600020A063A160013A02FB3B
:102970000313E360FF2384F8443084F84530A5B99D
:1029800023691BB901F020FA012038BD04F11000C1
:1029900000F000FE0028F5D0084B4FF080521A607E
:1029A000BFF34F8FBFF36F8FECE704F11000FFF719
:1029B000DEFE04F12400FFF7DAFEE3E704ED00E0B9
:1029C00010B5029B0C4639B11A60D8631C64012112
:1029D0001846FFF7B3FF10BD1B60F6E740B94FF094
:1029E000500383F31188BFF36F8FBFF34F8FFEE760
:1029F000F0B583B0054611B101FB00F000E0002006
:102A000017460C46483001F049FB064638B10090A5
:102A10003B4600F1480221462846FFF7D1FF3046E9
:102A200003B0F0BDF0B585B0019260B1044699B92C
:102A3000026C8AB14FF0500383F31188BFF36F8F9C
:102A4000BFF34F8FFEE74FF0500383F31188BFF3BE
:102A50006F8FBFF34F8FFEE7022B0BD1E26B012A82
:102A600008D04FF0500383F31188BFF36F8FBFF38B
:102A70004F8FFEE71E460F4600F02AFE50B9019B1D
:102A800053B14FF0500383F31188BFF36F8FBFF33F
:102A90004F8FFEE700253AE0002538E03246394600
:102AA0002046FFF7C7FE636A4BB9A8B13B4B4FF016
:102AB00080521A60BFF34F8FBFF36F8F0CE004F1A9
:102AC000240000F067FD38B1344B4FF080521A609B
:102AD000BFF34F8FBFF36F8F01F076F9012005B080
:102AE000F0BD01F071F90020F9E702A800F094FDB3
:102AF000012519E0002384F8443021E0002384F804
:102B0000453023E02046FFF7E2FE00F0E7FB01F04E
:102B100039F9A26BE36B9A42C0D3022EBED0019B5F
:102B2000002BDED0002DE0D001F04EF900F040FB8C
:102B300001F028F994F844305BB2B3F1FF3FD9D0EB
:102B400094F845305BB2B3F1FF3FD7D001F03CF9C8
:102B500001A902A800F074FDC8B92046FFF74EFE97
:102B60000028CFD0019904F1100000F0DBFC2046D2
:102B7000FFF7ADFE00F0B2FB0028C8D1074B4FF0C5
:102B800080521A60BFF34F8FBFF36F8FBFE72046AD
:102B9000FFF79DFE00F0A2FB0020A0E704ED00E09F
:102BA0002DE9F84360B1044699B9006C88B14FF043
:102BB000500383F31188BFF36F8FBFF34F8FFEE78E
:102BC0004FF0500383F31188BFF36F8FBFF34F8F24
:102BD000FEE7022B0BD1E06B012808D04FF0500329
:102BE00083F31188BFF36F8FBFF34F8FFEE71F464C
:102BF0009046894601F0D6F9EFF311864FF0500365
:102C000083F31188BFF36F8FBFF34F8FA26BE36B1A
:102C10009A4203D3022F01D000200FE094F84550D0
:102C20006DB23A4649462046FFF704FEB5F1FF3F34
:102C300008D06B1C5BB284F84530012086F3118804
:102C4000BDE8F883636A5BB104F1240000F0A2FCE4
:102C500040B1B8F1000F07D00120C8F80000EDE73F
:102C60000120EBE70120E9E70120E7E72DE9F0414A
:102C700084B0019260B1044699B9026C8AB14FF0F8
:102C8000500383F31188BFF36F8FBFF34F8FFEE7BD
:102C90004FF0500383F31188BFF36F8FBFF34F8F53
:102CA000FEE71F46884600F013FD50B9019B53B163
:102CB0004FF0500383F31188BFF36F8FBFF34F8F33
:102CC000FEE700265FE000265DE0E668414620461C
:102CD000FFF7EBFDDFB9013DA563236813B900F0F1
:102CE000B5FD6060236963B104F1100000F052FC8F
:102CF00038B1464B4FF080521A60BFF34F8FBFF38D
:102D00006F8F01F061F8012004B0BDE8F081E6604A
:102D1000636A002BF5D004F1240000F03BFC00288E
:102D2000EFD03A4B4FF080521A60BFF34F8FBFF392
:102D30006F8FE6E701F048F80020E5E702A800F011
:102D40006BFC012629E0002384F8443031E00023A5
:102D500084F8453033E001F015F8606800F0C8FCF5
:102D600001F032F83BE02046FFF7B1FD00F0B6FA83
:102D700009E02046FFF7ABFD00F0B0FA2046FFF770
:102D80004CFD002840D100F0FDFFA56B002D9CD12B
:102D9000019B002BCED0002ED0D001F015F800F012
:102DA00007FA00F0EFFF94F844305BB2B3F1FF3F55
:102DB000C9D094F845305BB2B3F1FF3FC7D001F002
:102DC00003F801A902A800F03BFC0028D1D120465D
:102DD000FFF723FD0028C6D02368002BBBD0019944
:102DE00004F1240000F09EFB2046FFF770FD00F088
:102DF00075FA0028C7D1054B4FF080521A60BFF317
:102E00004F8FBFF36F8FBEE700207DE704ED00E03A
:102E10000023072B0CD8074A52F833200AB101339C
:102E2000F7E7044A42F8331002EBC30358607047D7
:102E3000704700BF1040002070B504460D4616468E
:102E400000F0A0FF94F844305BB2B3F1FF3F0DD027
:102E500094F845305BB2B3F1FF3F0BD000F0B4FF04
:102E6000A36B5BB12046FFF732FD70BD002384F8F1
:102E70004430EDE7002384F84530EFE73246294639
:102E800004F1240000F068FBECE70000074B9B6AAC
:102E90001B6833B1054B9A6AD268D2685268DA620D
:102EA0007047024B4FF0FF32DA6270473C0200205D
:102EB00010B50446006B01F06BF9204601F068F98B
:102EC00010BD2DE9F04780469946089D099F0A9C50
:102ED000266B02F18042013A06EB820626F00706D5
:102EE00000230F2B07D8C85CE21882F83400CA5CB4
:102EF0000AB10133F5E7002384F84330062D00D9E9
:102F00000625E56265644FF0000AC4F848A0201D5C
:102F1000FFF738FC04F11800FFF734FC2461C5F119
:102F20000705A5616462C4F84CA084F850A04A4625
:102F30004146304600F0FEFE206007B13C60BDE82F
:102F4000F087000070B5002407E004EB84029300D2
:102F500010481844FFF70BFC0134062CF5D90E4C31
:102F600004F1BC063046FFF702FC04F1D005284608
:102F7000FFF7FDFB04F11400FFF7F9FB04F1E40097
:102F8000FFF7F5FB2046FFF7F2FBA662C4F8F85006
:102F900070BD00BF6C0200203C02002038B5054621
:102FA00000F0F0FE264BD3F8FC200132C3F8FC20E1
:102FB000D3F8003173B1224BD3F804318BB9204BD5
:102FC000D3F80031DA6AEB6A9A420AD81C4BC3F88C
:102FD000005106E01A4BC3F80051D3F8FC30012B26
:102FE0002AD0174CD4F808310133C4F80831EB6A01
:102FF00001229A40D4F80C110A43C4F80C2104F1C0
:10300000300003EB83039A00291D1044FFF7BDFB3A
:1030100000F0DAFED4F804316BB1D4F80031DA6A8A
:10302000EB6A9A4207D2074B4FF080521A60BFF307
:103030004F8FBFF36F8F38BDFFF784FFD1E700BF1D
:103040003C02002004ED00E070B504460E461F4B24
:10305000D3F81051D3F800010430FFF7BCFB60B97E
:103060001A4BD3F80021D16A012202FA01F1D3F8F8
:103070000C2122EA0102C3F80C21B4F1FF3F12D067
:103080002C44124BD3F800315C60A54214D80F4D8C
:10309000A86AD5F800110431FFF783FBEB6AA3425D
:1030A00012D9EC6210E0002EEAD00848D0F80011E6
:1030B0000431FFF76AFB07E0044BD3F8F800D3F8BC
:1030C00000110431FFF76DFB70BD00BF3C02002012
:1030D0002DE9F04385B0074688461546994690008D
:1030E00000F0DCFFF8B10646542000F0D7FF04469C
:1030F000A8B10663D4B10023039302940D9B0193FE
:103100000C9B00934B462A4641463846FFF7D9FEB2
:103110002046FFF743FF012005B0BDE8F0833046AD
:1031200001F036F8E6E74FF0FF30F5E74FF0FF30FB
:10313000F2E7000000B583B0194B01930023009320
:10314000802218491848FFF7C3FF012807D001283B
:1031500008D0B0F1FF3F1AD003B05DF804FB00F0D7
:10316000FDFBF4E74FF0500383F31188BFF36F8F3B
:10317000BFF34F8F0D4B4FF0FF32DA620122C3F8DD
:1031800004210022C3F8102100F098FEE4E74FF07C
:10319000500383F31188BFF36F8FBFF34F8FFEE7A8
:1031A00058030020187700086D3400083C02002006
:1031B000034AD2F818310133C2F81831704700BF02
:1031C0003C020020014BD3F8100170473C02002064
:1031D0002DE9F041404BD3F81831002B6CD13E4B18
:1031E000D3F810510135C3F81051CDB99B6A1B6853
:1031F00043B14FF0500383F31188BFF36F8FBFF3D8
:103200004F8FFEE7344B9A6AD3F8F8109962C3F8EF
:10321000F820D3F820210132C3F82021FFF736FE31
:103220002D4BDB6AAB423DD900242B4AD2F800314A
:10323000DB6A03EB830399000A44136B012B42D929
:10324000012440E00124244B9B6A1B6863B3224B9A
:103250009B6ADB68DE6873689D422AD306F1040826
:103260004046FFF7B8FAB36A1BB106F11800FFF742
:10327000B2FAF36A01229A40174FD7F80C110A43A9
:10328000C7F80C2107F1300003EB83039A00414695
:103290001044FFF77AFAF26AD7F80031DB6A9A42F3
:1032A000D0D2D0E70024CEE70B4B4FF0FF32DA62EA
:1032B000BBE7094AD362B8E7074AD2F824310133A1
:1032C000C2F824310024044BD3F8283103B101247F
:1032D0002046BDE8F08100BF3C020020394BD3F806
:1032E000183143B94FF0500383F31188BFF36F8F48
:1032F000BFF34F8FFEE770B500F044FD314BD3F8BC
:103300001821013AC3F81821D3F81831002B54D1F1
:103310002C4BD3F8FC3023B9002400F055FD204697
:1033200070BD0024274B5B692BB3264D2B6ADC68EC
:1033300004F11800FFF74FFA261D3046FFF74BFA4D
:10334000E36A01229A40D5F80C110A43C5F80C2112
:1033500005F1300003EB83039A0031461044FFF778
:1033600014FAE26AD5F80031DB6A9A42DAD3012214
:10337000C5F82821D6E70CB1FFF788FD114BD3F82B
:10338000244164B1FFF724FF18B10E4B0122C3F8AA
:103390002821013CF6D10B4B0022C3F82421094B14
:1033A000D3F828315BB1084B4FF080521A60BFF35D
:1033B0004F8FBFF36F8F0124AFE70024ADE70024E8
:1033C000ABE700BF3C02002004ED00E010B5B0B157
:1033D00004460F4BD3F8183143B14FF0500383F339
:1033E0001188BFF36F8FBFF34F8FFEE7FFF7E0FE4B
:1033F00000212046FFF728FEFFF770FF38B9054B84
:103400004FF080521A60BFF34F8FBFF36F8F10BD24
:103410003C02002004ED00E038B5134BD3F8143122
:103420000BB3FFF7C5FE104BD3F8E440FFF756FF90
:10343000002CF2D000F0A6FC0B4CD4F8F030DD6884
:10344000281DFFF7C8F9D4F8FC30013BC4F8FC3064
:10345000D4F81431013BC4F8143100F0B5FC28460F
:10346000FFF726FDD9E738BD3C02002008B5FFF77D
:10347000D3FF064B1B6B012BF9D9054B4FF0805244
:103480001A60BFF34F8FBFF36F8FF0E73C0200204D
:1034900004ED00E0224BD3F8183123B1204B012278
:1034A000C3F8282170471E4A0023C2F82831D2F8F9
:1034B0000C31B3FA83F3DBB2C3F11F0303EB8300D8
:1034C00081000A44126B42B94FF0500383F3118814
:1034D000BFF36F8FBFF34F8FFEE710B4104A990010
:1034E000CC18A0001044446B646844633032194423
:1034F00088000830024494420BD0094903EB83034F
:103500009A000A44536BDB68C1F800315DF8044B44
:10351000704761680248142202FB03025163ECE722
:103520003C02002040B94FF0500383F31188BFF3F1
:103530006F8FBFF34F8FFEE710B50C46054BD3F8E6
:1035400000111831FFF72DF901212046FFF77CFD0E
:1035500010BD00BF3C02002038B540B94FF0500309
:1035600083F31188BFF36F8FBFF34F8FFEE70C46D5
:103570001546074AD2F800111831FFF706F90DB1C8
:103580004FF0FF3429462046FFF75EFD38BD00BFEF
:103590003C02002038B5C368DC6844B94FF05003E2
:1035A00083F31188BFF36F8FBFF34F8FFEE704F1F2
:1035B00018052846FFF70FF9154BD3F8183103BB50
:1035C000251D2846FFF707F9E36A01219940104AB3
:1035D000D2F80C010143C2F80C11303203EB830323
:1035E000980029461044FFF7D0F8E26A084BD3F858
:1035F0000031DB6A9A4209D90120054BC3F8280142
:1036000038BD29460348FFF7C0F8EEE70020F7E78A
:103610003C0200205002002038B1084AD2F82011A4
:103620000160D2F81021426070474FF0500383F3DD
:103630001188BFF36F8FBFF34F8FFEE73C0200206E
:1036400038B550B1044689B94FF0500383F311885F
:10365000BFF36F8FBFF34F8FFEE74FF0500383F33D
:103660001188BFF36F8FBFF34F8FFEE70D4600F059
:1036700089FB124BD3F810112B68B3F1FF3F19D01F
:1036800020680E4AD2F82021904202D062688A4215
:1036900012D96268881A834204D8012400F094FB8E
:1036A000204638BD521A13442B602046FFF7B4FF62
:1036B0000024F3E70024F1E70124EFE73C020020B7
:1036C000024B0122C3F82821704700BF3C020020B2
:1036D000064BD3F804313BB1044BD3F818310BB18E
:1036E0000020704702207047012070473C020020F4
:1036F00000284DD038B50546C26A2649D1F80011D8
:10370000C96A8A4216D28169002906DB2149D1F8AB
:103710000011C96AC1F107018161686902EB820287
:1037200091001D4A0A44904205D01A4AD2F800215D
:10373000D26AEA6238BD2C1D2046FFF74CF8A0B1D2
:103740001448D0F80031DB6AEB6201229A40D0F8CD
:103750000C110A43C0F80C21303003EB83039A00AC
:1037600021461044FFF711F8E4E7EA6A02EB82030E
:103770009900084B0B441B6B002BE1D101239340B4
:103780000449D1F80C2122EA0302C1F80C21D7E741
:10379000704700BF3C0200206C02002000284DD082
:1037A00038B50446284AD2F80021824208D04FF0AA
:1037B000500383F31188BFF36F8FBFF34F8FFEE782
:1037C000826C42B94FF0500383F31188BFF36F8FBF
:1037D000BFF34F8FFEE7013A8264C06A616C884292
:1037E0002ED07ABB251D2846FEF7F5FF78B9E26A90
:1037F0001549142303FB02131B6B43B9012303FA7E
:1038000002F2D1F80C3123EA0203C1F80C31626CE8
:10381000E262C2F10703A361012404FA02F10A4B38
:10382000D3F80C010143C3F80C113033294614209E
:1038300000FB0230FEF7A9FF204638BD002070478C
:103840000020FAE70020F8E73C020020064BD3F8FE
:1038500000312BB1044BD3F80021936C01339364F6
:10386000014BD3F8000170473C020020064B1A6858
:103870001368B3FA83F35B09036013B9D36818685C
:1038800070470020704700BF6803002008B5416002
:10389000006191420CD8D21A83699A4201D3012067
:1038A00010E0011D094B5868FEF77BFF002009E07E
:1038B0009A4201D2994206D2011D044B1868FEF7C4
:1038C00070FF002008BD0120FCE700BF6803002056
:1038D00070B500F057FA0F4B9B6813B100F074FA03
:1038E00070BD0C4C04F10C063046FEF740FF04F1AD
:1038F00020052846FEF73BFF2660656000220C216C
:103900000A20FFF76BF8A0600028E7D00249FFF714
:103910007FFAE3E768030020207700082DE9F041F3
:10392000079C41B94FF0500383F31188BFF36F8FA9
:10393000BFF34F8FFEE70F4674B11D461646804613
:10394000FFF7C6FFC4F80080A761E6612562069B09
:103950006362201DFEF716FFBDE8F08100B583B05D
:10396000FFF7B6FF0D4B9B685BB10D4B0193022334
:10397000009300234FF480720A490B48FFF7A8FB1D
:1039800040B94FF0500383F31188BFF36F8FBFF33B
:103990004F8FFEE703B05DF804FB00BF6803002013
:1039A0009C03002028770008B53C00082DE9F04171
:1039B00082B005460E4617469846282000F06EFB5A
:1039C000044640B10190089B009343463A46314675
:1039D0002846FFF7A3FF204602B0BDE8F0810000B3
:1039E000C8B130B585B015460446174A906840B353
:1039F0001A4601910295039405291DDCFFF768FE24
:103A0000022811D000231A4601A90F488068FFF749
:103A100009F805B030BD4FF0500383F31188BFF3B0
:103A20006F8FBFF34F8FFEE70023089A01A9064866
:103A30008068FEF7F7FFECE7002301A9FFF7B0F875
:103A4000E7E70020E5E700BF68030020204B1B6884
:103A50001A68002A37D070B582B0DB681E68DC684F
:103A6000251D2846FEF7B7FE636A20469847E3699E
:103A7000012B0AD0164B1B681A68002AEDD1144A94
:103A800051681160536002B070BDA36933449E4217
:103A900007D26360246129460D4B1868FEF781FE4A
:103AA000E8E7002100910B4632462046FFF798FFD9
:103AB0000028DFD14FF0500383F31188BFF36F8FDD
:103AC000BFF34F8FFEE7024A5168116053607047A1
:103AD0006803002038B50546FFF774FB0446074B22
:103AE0009B6B834205D800232B60044B9C632046CC
:103AF00038BDFFF7ABFF01232B60F6E7680300201A
:103B000070B582B005460E46144B1B68DB68DC6856
:103B1000201DFEF760FEE369012B04D0636A204696
:103B2000984702B070BDA1692B4632462944204611
:103B3000FFF7ACFE0028F1D0002100910B462A4689
:103B40002046FFF74DFF0028E8D14FF0500383F3E4
:103B50001188BFF36F8FBFF34F8FFEE7680300201C
:103B600070B582B006460C46FFF722FB01A8FFF7AE
:103B7000B1FF019B1BBB05460CB9B04218D22CB15A
:103B8000114B5B681C68B4FA84F464092246711B0B
:103B90000D4B9868FFF750F9FFF7A0FB88B90B4B66
:103BA0004FF080521A60BFF34F8FBFF36F8F08E062
:103BB000FFF794FB29463046FFF7A2FF01E0FFF72D
:103BC0008DFB02B070BD00BF6803002004ED00E073
:103BD00030B587B000231A4603A935488068FFF73F
:103BE00045F8002861D0039B002BF3DB059C63693B
:103BF00013B1201DFEF7EFFD02A8FFF76BFF039B3B
:103C0000092BE7D801A252F823F000BF353C000889
:103C1000353C0008353C0008D53B00087D3C0008D9
:103C2000A33C0008353C0008353C0008D53B0008A3
:103C30007D3C00080499A5690B46024629442046AC
:103C4000FFF724FE0028C5D0636A20469847E36941
:103C5000012BBFD1A269002100910B4604980244B8
:103C60002046FFF7BDFE0028B4D14FF0500383F388
:103C70001188BFF36F8FBFF34F8FFEE70499A161E7
:103C800031B10346024601442046FFF7FFFDA1E79C
:103C90004FF0500383F31188BFF36F8FBFF34F8F43
:103CA000FEE7204600F074FA94E707B030BD00BF8D
:103CB0006803002000B583B001A8FFF7D7FD019984
:103CC000FFF74EFFFFF784FFF6E700000B4B1B6882
:103CD000B3F1FF3F08D04FF0500383F31188BFF3D7
:103CE0006F8FBFF34F8FFEE74FF0500383F31188C0
:103CF000BFF36F8FBFF34F8FFEE700BF08000020B8
:103D000006480068006880F3088862B661B6BFF3B1
:103D10004F8FBFF36F8F00DF00BF000008ED00E0A2
:103D2000DFF80C00016841F4700101607047000089
:103D300088ED00E04FF0807340F8043C21F0010171
:103D400040F8081C054B40F80C3C40F8202C6FF064
:103D5000020340F8243C4438704700BFCD3C0008C3
:103D6000074B19680868B0E8F04F80F30988BFF383
:103D70006F8F4FF0000080F311887047AFF3008021
:103D80003C0300204FF0500383F31188BFF36F8F83
:103D9000BFF34F8F0A4A136801331360012B00D021
:103DA0007047084B1B6813F0FF0FF9D04FF050031A
:103DB00083F31188BFF36F8FBFF34F8FFEE700BF10
:103DC0000800002004ED00E0094B1B6843B94FF0E8
:103DD000500383F31188BFF36F8FBFF34F8FFEE75C
:103DE000013B034A13600BB983F31188704700BF8E
:103DF000080000200000000000000000000000009B
:103E0000EFF30980BFF36F8F154B1A681EF0100F88
:103E100008BF20ED108A20E9F04F10604DF8043DF6
:103E20004FF0500080F31188BFF34F8FBFF36F8FB7
:103E3000FFF730FB4FF0000080F3118808BC1968D1
:103E40000868B0E8F04F1EF0100F08BFB0EC108A01
:103E500080F30988BFF36F8F704700BFAFF3008016
:103E60003C03002008B54FF0500383F31188BFF3E3
:103E70006F8FBFF34F8FFFF7ABF918B1034B4FF0C4
:103E800080521A60002383F3118808BD04ED00E01E
:103E9000064B1B68064AA2FB03239B09013B054A0C
:103EA0001360054B07221A60704700BF48000020CE
:103EB000D34D621014E000E010E000E0314B1A68CE
:103EC000314B9A420DD02F4B1A68304B9A4211D188
:103ED0004FF0500383F31188BFF36F8FBFF34F8F01
:103EE000FEE74FF0500383F31188BFF36F8FBFF3EA
:103EF0004F8FFEE700B583B0254B1A78D2B20192FE
:103F0000FF221A701B78DBB28DF803309DF8033066
:103F100003F050031F4A1370072353609DF80330CA
:103F200013F0800F0AD01B4A5368013B53609DF881
:103F300003305B00DBB28DF80330EFE7154A5368BE
:103F40001B0203F4E0635360019BDBB2104A137061
:103F5000114B1A6842F470021A601A6842F07042FB
:103F60001A60FFF795FF0D4B00221A60FFF7D8FE8D
:103F70000B4A136843F040431360FFF7C1FEFFF79D
:103F8000A5FE00BF00ED00E071C20F4170C20F41FD
:103F900000E400E0A403002020ED00E00800002081
:103FA00034EF00E0EFF305830F2B0FD9104A9B5C31
:103FB000DBB2104A12789A4208D94FF0500383F3CB
:103FC0001188BFF36F8FBFF34F8FFEE70A4B1B685B
:103FD00003F4E063074A5268934208D94FF0500354
:103FE00083F31188BFF36F8FBFF34F8FFEE77047E6
:103FF000F0E300E0A40300200CED00E0104A12F012
:10400000070F1AD0D11D21F00701C1F570531344D9
:104010000A460C490A60002048601344083B23F01C
:1040200007038B6058601860981A50601360C8606E
:1040300008614FF000434B6170474FF47053E8E75D
:10404000C4030020AC03002010B4134B1A68824252
:104050001BD359685C18844203D1406801445960FD
:10406000184641684418A24213D10B4CA468A242DE
:104070000DD05268114441601A681268026098427B
:1040800000D018605DF8044B70471346DEE704600B
:10409000F5E70260F3E700BFAC03002070B504460B
:1040A000FFF786F8394B9B68BBB1384B5B691C4204
:1040B00062D1ACB1083414F0070F11D024F007041A
:1040C000083404F007035BB14FF0500383F3118809
:1040D000BFF36F8FBFF34F8FFEE7FFF78FFFE4E76C
:1040E000002C4BD0294B1B69A34249D3274B1D6899
:1040F00001E02B4615466A68A24202D22A68002ACD
:10410000F7D1224A9268AA423CD01E6808362A6833
:104110001A606B681B1B102B10D9281910F0070FA1
:1041200008D04FF0500383F31188BFF36F8FBFF3B4
:104130004F8FFEE743606C60FFF786FF6968134AA4
:1041400013695B1A1361D268934201D20F4AD3609C
:104150000E4B5B690B436B6000232B60FFF7BEF8CF
:1041600016F0070F10D04FF0500383F31188BFF300
:104170006F8FBFF34F8FFEE70026EFE70026EDE7D6
:104180000026EBE70026E9E7304670BDAC030020CF
:1041900080B338B50446A0F1080550F8042C164940
:1041A00049690A4208D14FF0500383F31188BFF3E5
:1041B0006F8FBFF34F8FFEE750F8080C40B14FF000
:1041C000500383F31188BFF36F8FBFF34F8FFEE768
:1041D00022EA010244F8042CFEF7EAFF54F8041C1A
:1041E000054A13690B4413612846FFF72DFFFFF7BB
:1041F00075F838BD704700BFAC0300200C4BDA687F
:1042000022F08072DA60DA6842F08072DA60094B7C
:104210001A6822F001021A601A6842F001021A605C
:1042200000225A605A6800BF00BF5868801A704761
:10423000F0ED00E0001000E07047000038B51E4BC4
:104240009A6901329A61DB691BB11B4AD369013B50
:10425000D361002401E00134E4B2174B1B78A34280
:1042600027D92546144B03EB84035B68002BF2D05F
:104270001A7812F0020FEED09A680AB1013A9A60E9
:104280000D4B03EB850358688368002BE3D1C368AB
:1042900001699847084B03EB85056B685A689A607B
:1042A0001A7812F0010FD6D11A786FF341021A7002
:1042B000D1E7FFF7C1FF38BDC43F0020014B98692B
:1042C000704700BFC43F002010B5044600F09EFABE
:1042D000CC21204600F09EFB4421204600F09AFBB2
:1042E00010BD0378282B01D00020704701207047B3
:1042F000F0B585B005460C4616460846FFF7F1FFB7
:10430000034610B9184605B0F0BD284600F036FB4C
:1043100003460028F6D0284600F078FA21462846C1
:1043200000F01BFCBE21284600F074FB002408E0CE
:10433000284600F080FB04AB234403F80C0C013446
:10434000E4B2082CF4D9082101A800F021FC9DF862
:104350000C30834201D00023D4E79DF804709DF80F
:10436000053047EA03273FB2BCB2284600F04EFAB8
:10437000002F12DB00209DF8081044F30713220AD7
:10438000120102F0700213435BB2C1F34112032A1F
:1043900041D8DFE802F0061F2A356442A4B20120AA
:1043A000E9E7C4F3C00207EE902AF8EEE77AB6EE2A
:1043B000007A27EE877A07EE903AF8EEE77A77EE02
:1043C000877A18B19FED167A77EE677AC6ED007A94
:1043D000012397E7C4F3810207EE902AF8EEE77A0B
:1043E000B5EE007A27EE877AE5E7C4F3420207EEDE
:1043F000902AF8EEE77AB4EE007A27EE877ADAE7C9
:1044000004F00F0207EE902AF8EEE77A9FED057AA6
:1044100027EE877ACFE79FED047A0023CBE700BF32
:10442000000000000000803D00007F432DE9F843BC
:1044300004460D4616460846FFF753FF034610B9DB
:104440001846BDE8F883204600F0E0F929462046EA
:1044500000F083FBBE21204600F0DCFA204600F08D
:10446000EAFA204600F0E7FA204600F0E4FA814636
:10447000204600F0E0FA8046204600F0DCFA0746CD
:10448000092E09D00A2E2DD00B2E30D00C2E05D19E
:1044900040F06007FFB201E000F09F07204600F007
:1044A000B5F92946204600F058FB4E21204600F081
:1044B000B1FA4946204600F0ADFA4146204600F0E8
:1044C000A9FA3946204600F0A5FA204600F09EF9E8
:1044D0002946204600F041FB4821204600F09AFA88
:1044E0000123ADE700F0BF0747F02007D6E700F053
:1044F000DF0747F04007D1E72DE9F04104460E46BB
:1045000015460846FFF7EDFE0346002848D07D2DEE
:1045100005DC15F1370F03DA6FF0360500E07D2575
:10452000204600F073F93146204600F016FBBE210C
:10453000204600F06FFA204600F07DFA204600F099
:104540007AFA204600F077FA8046204600F073FAA7
:10455000204600F070FA0746EDB2204600F056F90A
:104560003146204600F0F9FA4E21204600F052FA7A
:104570004146204600F04EFA2946204600F04AFA0D
:104580003946204600F046FA204600F03FF9314611
:10459000204600F0E2FA4821204600F03BFA0123D1
:1045A0001846BDE8F0812DE9F04104460E46154657
:1045B0000846FFF796FE0346002848D07D2D05DC0F
:1045C00015F1370F03DA6FF0360500E07D25204640
:1045D00000F01CF93146204600F0BFFABE2120460B
:1045E00000F018FA204600F026FA204600F023FAE0
:1045F000204600F020FA204600F01DFA80462046B2
:1046000000F019FA0746EDB2204600F0FFF83146F7
:10461000204600F0A2FA4E21204600F0FBF9294680
:10462000204600F0F7F94146204600F0F3F93946FC
:10463000204600F0EFF9204600F0E8F83146204629
:1046400000F08BFA4821204600F0E4F901231846D7
:10465000BDE8F08108B500F091F908BD002303E042
:1046600030BC70470133DBB20F2B16D841FA03F28E
:1046700012F0010FF6D030B402685D000324AC40A4
:1046800022EA040202600133DBB20F2BE8D841FAC0
:1046900003F212F0010FF6D0EEE77047002303E0BB
:1046A00070BC70470133DBB20F2B19D841FA03F20B
:1046B00012F0010FF6D070B402685E000325B54019
:1046C00022EA05020124B440224302600133DBB236
:1046D0000F2BE5D841FA03F212F0010FF6D0EBE709
:1046E000704700F13F4000F57E00C0F38F20704717
:1046F00008B5FFF7F6FF04490B6B012202FA00F040
:1047000003430B6308BD00BF003802402DE9F84F9A
:1047100004460E46154699469DF828709DF82C8053
:10472000FFF7DFFFC0B2002301E00133DBB20F2B44
:104730003BD846FA03F212F0010FF6D04FF0010E0B
:104740000EFA03FE1A4931F810204EEA020221F84F
:104750001020E1684FEA430C032202FA0CF2D24324
:10476000114007FA0CFB41EA0B01E160216811409E
:1047700005FA0CFB41EA0B012160691EC9B201294F
:10478000D3D861681FFA8EFE21EA0E0E09FA03FAE9
:104790001FFA8AFA4EEA0A016160A1680A4008FA23
:1047A0000CFC42EA0C02A260BFE7BDE8F88F00BF34
:1047B000E43F002001B97047F0B583B00F461E46B4
:1047C00015460446FFF794FF9DF8243001939DF8A9
:1047D0002030009333462A4639462046FFF796FF9D
:1047E00003B0F0BD70B582B004460E461546FFF723
:1047F00005FD012201920092002329463046FFF771
:10480000D9FF2660A58002B070BD000070B50546D6
:10481000838802681B04936181880068FFF73EFF6C
:104820004FF4F0741E4B5E68FDF71CF81D4BA3FBA4
:104830000030800C04FB00F4194B5B689B1BA34207
:10484000FAD3A9882868FFF709FF4624144B5E684D
:10485000FDF708F8134BA3FB0030800C04FB00F4B9
:104860000F4B5B689B1BA342FAD32B681A69AB887A
:104870001A4214BF012600264FF4CD74084B5D6820
:10488000FCF7F0FF074BA3FB0030800C04FB00F4A7
:10489000034B5B685B1BA342FAD3304670BD00BF7D
:1048A000001000E083DE1B4370B50446002930D1C0
:1048B000838802681B04936181880068FFF7EEFE1D
:1048C00041252C4B5E68FCF7CDFF2B4BA3FB003042
:1048D000800C05FB00F5274B5B689B1BAB42FAD3B2
:1048E000A1882068FFF7BAFE0525224B5E68FCF719
:1048F000B9FF214BA3FB0030800C05FB00F51D4BDD
:104900005B689B1BAB42FAD3A1882068FFF7A6FE29
:1049100070BD838802681B04936181880068FFF77B
:10492000BDFE0A25134B5E68FCF79CFF124BA3FBF0
:104930000030800C05FB00F50E4B5B689B1BAB4207
:10494000FAD3A1882068FFF789FE3725094B5E68F6
:10495000FCF788FF084BA3FB0030800C05FB00F53B
:10496000044B5B689B1BAB42FAD3A1882068FFF71E
:1049700075FECDE7001000E083DE1B4370B50546F1
:10498000838802681B04936181880068FFF786FEB4
:1049900003241E4B5E68FCF765FF1D4BA3FB003034
:1049A000800C04FB00F4194B5B689B1BA342FAD3F9
:1049B000A9882868FFF752FE0A24144B5E68FCF7AA
:1049C00051FF134BA3FB0030800C04FB00F40F4B92
:1049D0005B689B1BA342FAD32B681A69AB881A4207
:1049E00012D001263224094B5D68FCF73BFF084BCF
:1049F000A3FB0030800C04FB00F4044B5B685B1BE2
:104A0000A342FAD3304670BD0026EBE7001000E069
:104A100083DE1B4370B506460D46082206E005F00E
:104A200001013046FFF740FF6D082246531EDCB2FD
:104A3000002AF4D170BD70B506460020082207E0B8
:104A400044083046FFF79AFF44EAC010C0B22A4635
:104A5000531EDDB2002AF3D170BD002383710372AF
:104A6000C37170472DE9F8430446057A3DB1002033
:104A7000A0712072E07105462846BDE8F8830E4615
:104A8000FFF7C4FE814620B10023A3712372E371B6
:104A9000F2E731462046FFF7BDFFC84601252F4605
:104AA0002FE0012836D1402FE1D984F80690B9F1E2
:104AB000000F01D101232372637A002BD7D0012587
:104AC000DAE7A679BE420CD904EB08035B7A2B42E5
:104AD00014BF01260026FEB9082F07D8E771B94692
:104AE0001AE0BE4214BF00260126F4E7B94613E0DF
:104AF00004EB0802537A2B43537215E0B8F1070F09
:104B0000D1D82046FFF73AFF06462046FFF736FF8A
:104B1000012EC6D08642D4D0012EE9D004EB080283
:104B2000537A23EA0503537231462046FFF7BCFE51
:104B30000137FFB26D0015F0FF05DFD108F1010864
:104B40005FFA88F80125D9E710B50446FFF785FF1D
:104B5000F0212046FFF786FF10BD70B506460D46D2
:104B60005521FFF757FF002405E0295D3046FFF788
:104B700051FF0134E4B2072CF7D970BD002304E0E3
:104B8000C218527ACA540133DBB2072BF8D97047E6
:104B900030B4002210E04008013BDBB253B182EA9E
:104BA000000111F0010F4FEA5202F4D082F08C02A2
:104BB000D2B2F0E7214628464B1EDCB219B1451CA3
:104BC00000780823EAE7104630BC7047474BD3ED26
:104BD000007A474B1A8807EE102AB8EEC77AB4EE6F
:104BE000E77AF1EE10FA27DA414B988806EE900A40
:104BF000F8EEE66AF4EEE76AF1EE10FA22DA10B4A3
:104C00003B4B1A8907EE102AB8EEC77AB4EEE77A62
:104C1000F1EE10FA31DA364B998906EE901AF8EE79
:104C2000E66AF4EEE76AF1EE10FA43DA314B1B68FC
:104C30002F4AD2891A643AE02E4B1B682C4A5288BC
:104C40001A6470475988DB885B1A821A93FBF2F367
:104C500077EEC77A07EE103AB8EEC77A67EE277A92
:104C600007EE101AB8EEC77A77EE277A214B1B6849
:104C7000FCEEE77AC3ED107A7047DC885989091B8E
:104C8000101A91FBF0F177EEE67A07EE101AB8EE03
:104C9000C77A67EE277A07EE104AB8EEC77A77EE42
:104CA000277A144B1B68FCEEE77AC3ED107A5DF8A7
:104CB000044B70475C89DB891B1B8A1A93FBF2F358
:104CC00077EEC77A07EE103AB8EEC77A67EE277A22
:104CD00007EE104AB8EEC77A77EE277A054B1B68C5
:104CE000FCEEE77AC3ED107AE1E700BFA0400020B8
:104CF0000C0000206040002070B41B4D2C881B4A23
:104D0000117C8BB202EB4406B08AC01AB082508B81
:104D100002EB4000868A1E44868215480068968A07
:104D20004663D68A8663128BC2636A8813449BB239
:104D30006B80C1F579720332934211DB00236B80E3
:104D40000134A3F1AA3383FB041303EB4303E31AF7
:104D50009BB22B80022B05D001339BB2034A5383B5
:104D600070BC70470023F9E7FE3F00200C000020D4
:104D700060400020344BD3ED007AB3EE0E7AF4EEAF
:104D8000C77AF1EE10FA10D49FED307AF4EEC77ABC
:104D9000F1EE10FA13D42E4B1B682E4A918B5963F7
:104DA000D18B9963128CDA637047294B1B68294AAF
:104DB000918A5963D18A9963128BDA637047B3EE93
:104DC0000E7A77EEC77AB3EE097A87EE876A2149C1
:104DD0008B8A8A8BD21A07EE102AB8EEC77A67EE52
:104DE000066A07EE903AB8EEE77A37EE267A184B65
:104DF0001868BCEEC77A80ED0D7ACB8ACA8BD21ABE
:104E000007EE102AB8EEC77A67EE066A07EE903A08
:104E1000B8EEE77A37EE267ABCEEC77A80ED0E7AE6
:104E20000B8B0A8CD21A07EE902AF8EEE77A27EE5F
:104E3000867A07EE903AF8EEE77A77EE877AFCEE1C
:104E4000E77AC0ED0F7A7047A040002000005C4276
:104E5000604000200C000020044B1B68044A918A2B
:104E60005963D18A9963128BDA63704760400020DE
:104E70000C0000202DE9F0475C4B187C5C4B5A88F5
:104E8000104480B25880B0F57A7F06D9B0F5FA6F39
:104E900056D9574B00225A8050E0544CB4F814A015
:104EA000A58BA5EB0A05FBF7E5FA0022514BFBF7B2
:104EB00075FC06460F462846FBF7DCFA32463B46B1
:104EC000FBF742FB804689465046FBF7D3FA424641
:104ED0004B46FBF783F9484B1D68FBF7E5FD68631C
:104EE000B4F816A0E08BA0EB0A00FBF7C3FA324639
:104EF0003B46FBF729FB804689465046FBF7BAFA4A
:104F000042464B46FBF76AF9FBF7CEFDA863B4F8BF
:104F10001880208CA0EB0800FBF7ACFA32463B4629
:104F2000FBF712FB06460F464046FBF7A3FA324654
:104F30003B46FBF753F9FBF7B7FDE863BDE8F087A5
:104F4000A0F57A70294CB4F81CA0A58AA5EB0A0537
:104F500080B2FBF78FFA0022264BFBF71FFC0646B8
:104F60000F462846FBF786FA32463B46FBF7ECFA3B
:104F7000804689465046FBF77DFA42464B46FBF792
:104F80002DF91D4B1D68FBF78FFD6863B4F81EA05B
:104F9000E08AA0EB0A00FBF76DFA32463B46FBF7CE
:104FA000D3FA804689465046FBF764FA42464B46A0
:104FB000FBF714F9FBF778FDA863B4F82080208B89
:104FC000A0EB0800FBF756FA32463B46FBF7BCFA6B
:104FD00006460F464046FBF74DFA32463B46FBF786
:104FE000FDF8FBF761FDE863A8E700BF0C000020B7
:104FF000FE3F002000408F406040002084B000222F
:105000000192104B196B41F080011963196B01F08B
:105010008001019101990292196B41F0010119631C
:10502000196B01F001010291029903921A6B42F08F
:1050300008021A631B6B03F008030393039B04B07D
:10504000704700BF0038024008B5054B1B7903B11B
:1050500008BD042203490448FDF7A4F9F8E700BF9E
:10506000FE3F002030000020CC40002000B589B079
:1050700008A82D4B40F8043D00220121FDF7E0FA7D
:105080002A4B18604FF49671FDF7EEFA08A8284BEA
:1050900040F8083D00220121FDF7D2FA254B1860A7
:1050A000C821FDF7E1FA08A8234B40F80C3D002287
:1050B0000121FDF7C5FA214B18606421FDF7D4FAF0
:1050C00008A81F4B40F8103D00220121FDF7B8FA57
:1050D0001C4C206008A81C4B40F8143D0022012104
:1050E000FDF7AEFA194B186008A8194B40F8183DA7
:1050F00000221146FDF7A4FA164B186008A8164BBB
:1051000040F81C3D00220121FDF79AFA134B18606C
:1051100005212068FDF7A8FA2268114B1A600120CA
:10512000FDF785FAFBE700BF49500008C8400020A2
:10513000CD4B0008C440002059520008A440002074
:10514000F94C000810410020754D00089C400020DB
:10515000594E0008A8400020754E00080C41002060
:1051600054400020013900238B420BDA10B4C25C9A
:10517000445CC4544254013301398B42F7DB5DF87F
:10518000044B70477047000070B50D4600240EE0D8
:105190000F4981FB0031C317C3EBA1031E4603EB8C
:1051A00083035900431A30332B553046013400280D
:1051B000EED102E030232B5501349442FADB214634
:1051C0002846FFF7CFFF00232B55204670BD00BFB8
:1051D00067666666000000002DE970432DED028BC6
:1051E00004460D46FDEEC07AB8EEE78A30EE488AF6
:1051F0000022014617EE900AFFF7C6FF1DB9BDEC6D
:10520000028BBDE8708306462E2323542846FBF705
:1052100031F941EC110B9FED0E0B00F04DFC59ECF8
:10522000108B18EE100AFBF737F942464B46FBF796
:105230008BF9FBF759FC711C2A46214407EE900AB2
:10524000FDEEE77A17EE900AFFF79EFFD7E700BF63
:10525000000000000000244010B584B01648FFF79D
:1052600040F808B904B010BD1448FFF7F3F900285E
:10527000F8D0134A10491148FFF73AF80028F1D046
:105280000E48FFF721F804210DEB01000C4B93EDC4
:10529000000AFFF7A1FF0B4C01AA0B49204601F0C1
:1052A000FDFD2046FBF7F0FD4FF4FA7382B2214674
:1052B0000648FDF707F8D5E758400020AC4000202D
:1052C000A04000203C00002030770008CC400020A7
:1052D000064A40F2E73393820023D38213830449C2
:1052E0000B80012050834B80704700BF0C000020D2
:1052F000FE3F002010B5002303710378462B02D037
:105300004C2B09D010BD2E4B03221A7106222D49B9
:105310002D48FDF747F8F5E74378532B12D00330BB
:1053200001F0CAFCC0B2264B5871B8B9274B1868B7
:10533000FDF7D0F9224B5B79032BE3D8DFE803F0CC
:1053400016212A34023001F0B7FC214B18741C4B93
:105350005B79002BD6D1FFF7BBFFD3E701221A718F
:10536000092218491848FDF71DF8DFE7FFF7B0FFDD
:10537000184C05212068FDF777F92268134B1A6055
:10538000C0E7154C64212068FDF76EF922680F4BC9
:105390001A60B7E7114C4FF47A712068FDF764F991
:1053A00022680A4B1A60ADE7054B00225A800C4C6C
:1053B00005212068FDF758F92268044B1A60A1E71F
:1053C000FE3F002030000020CC4000205440002050
:1053D0000C000020104100209C400020A84000202C
:1053E0000C4100200000000030B585B00A22704951
:1053F00001A801F073FD6F4B1B79062B08D8DFE87D
:1054000003F004092942688EB30001A8FFF772FF78
:1054100005B030BD00258DF80E500DF10A0001F0E9
:105420004BFC654C20838DF80A500DF1070001F00C
:1054300043FCE0828DF8075001A801F03DFCA082FA
:105440005C4B02221A71092204F124015B48FCF72B
:10545000A9FFDDE700248DF80E400DF10A0001F0F0
:105460002BFC554D28848DF80A400DF1070001F002
:1054700023FCE8838DF8074001A801F01DFCA883F8
:105480004C4B1C71C4E700258DF80B500DF1070043
:1054900001F012FCFAF7EEFF0022494BFBF77EF910
:1054A00041A3D3E90023FBF74FF8434CFBF7FCFA89
:1054B00060808DF8075001A801F0FEFB214621F81D
:1054C000240B3C4B04221A7106223C48FCF76AFF6D
:1054D0009EE700258DF80B500DF1070001F0ECFB65
:1054E000FAF7C8FF0022364BFBF758F92EA3D3E991
:1054F0000023FBF729F8304CFBF7D6FAE0808DF853
:10550000075001A801F0D8FBA0802A4B05221A7190
:10551000062204F124012948FCF744FF78E700251E
:105520008DF80B500DF1070001F0C6FBFAF7A2FF52
:105530000022234BFBF732F91BA3D3E90023FBF72F
:1055400003F81D4CFBF7B0FA60818DF8075001A8F5
:1055500001F0B2FB20810622164B1A7104F12401DE
:105560001648FCF71FFF53E700248DF80B400DF1A0
:10557000070001F0A1FBFAF77DFF0022104BFBF7BB
:105580000DF909A3D3E90023FAF7DEFF0A4DFBF773
:105590008BFAE8818DF8074001A801F08DFBA88106
:1055A000044B1C7134E700BF0000000000388F403E
:1055B00030000020FE3F00200C000020CC400020E6
:1055C00000005940FEE7000008B50B480B4B036094
:1055D0004FF41653436000238360C36003610C22C1
:1055E00042618361C361FCF73EFE00B908BD40F231
:1055F000B6210348FFF7E6FFCC40002000440040FE
:105600003477000800B58FB039483A4B0360532314
:1056100043600023836040F2E732C2600361FCF71D
:10562000EDFA00283BD10EA94FF4805341F8103D0C
:105630002F48FCF7FFF9002836D12D48FCF7F7FA80
:10564000002836D100230893099308A92848FCF7BD
:10565000D3FB002832D160230193002202920392EF
:10566000059201A92248FCF72DFB60BB04220DEB3B
:1056700002011F48FCF726FB50BB082201A91C4869
:10568000FCF720FB48BB0C2201A91948FCF71AFBC8
:1056900040BB174800F066F90FB05DF804FB40F21C
:1056A00077211548FFF78EFF40F27D211248FFF762
:1056B00089FF40F282211048FFF784FF40F28921E0
:1056C0000D48FFF77FFF40F292210B48FFF77AFF6A
:1056D00040F297210848FFF775FF4FF427710648FD
:1056E000FFF770FF40F2A1210348FFF76BFF00BFF7
:1056F00060400020000800403477000800B595B0F5
:10570000002101912C4B1A6C42F080521A641B6CE0
:1057100003F080530193019B0291284B1A6842F4D5
:1057200080421A601B6803F480430293029B0123AA
:1057300008934FF48033099302230E934FF48002B1
:105740000F92082210924FF4A8721192129307231D
:10575000139308A8FBF7A2FD20BB0F23039302239A
:105760000493002305934FF4A05306934FF4805302
:105770000793052103A8FBF7C9FFC0B9FCF772F82E
:105780000F4BA3FB00308009FBF76AFC0420FBF7FA
:105790007DFC00220F214FF0FF30FBF721FC15B0FC
:1057A0005DF804FB40F24B210648FFF70BFF40F287
:1057B00059210448FFF706FF0038024000700040FE
:1057C000D34D62103477000800B587B0FBF7DCFBDF
:1057D000FFF794FFFFF712FCFFF7F6FEFFF712FF4B
:1057E000284D102228492846FEF7FCFF274C0021AF
:1057F0002046FCF7E5FA04212046FCF7E1FA0821EF
:105800002046FCF7DDFA0C212046FCF7D9FA2846A1
:10581000FFF79AF9D8B91E48FEF763FDE0B90026F4
:1058200006A840F8046D0121FCF786FF194B1860AB
:105830006C46194D0FCD0FC42B6823603146684666
:10584000FCF7DBFE154B1860FCF7D2FEFEE71049B3
:105850002846FFF793F9DEE70D4D0A4C0C22294646
:105860002046FEF7E3FD1E2229462046FEF79BFE5A
:105870000A2229462046FEF73FFE2046FEF724FD79
:10588000CDE700BFAC400020000402406040002093
:1058900058400020C0400020E8760008504000201A
:1058A00010B582B000240094214B5A6C42F480421F
:1058B0005A645A6C02F480420092009A01941A6C65
:1058C00042F080521A641B6C03F080530193019BD9
:1058D0000320FBF773FB224621466FF00B00FBF71A
:1058E0007FFB224621466FF00A00FBF779FB224638
:1058F00021466FF00900FBF773FB224621466FF04B
:105900000400FBF76DFB224621466FF00300FBF716
:1059100067FB22460F216FF00100FBF761FB224677
:105920000F214FF0FF30FBF75BFB02B010BD00BF53
:10593000003802400268094B9A4200D0704782B09A
:1059400000230193064B1A6C42F004021A641B6C8C
:1059500003F004030193019B02B07047000800406C
:105960000038024002680B4B9A4200D0704700B5E5
:1059700087B04FF4704301930223029300220392F5
:105980000492059301A90448FBF7A4FB07B05DF856
:1059900004FB00BF00080040000C02400268154BE9
:1059A0009A4200D0704710B586B00024009403F5E9
:1059B000FA331A6C42F400321A641B6C03F400339D
:1059C0000093009B0C230193022302930123039372
:1059D000032304930723059301A90748FBF77AFBE8
:1059E000224605212620FBF7FBFA2620FBF72CFB9D
:1059F00006B010BD004400400000024008B5FEF7AC
:105A00001DFCFCF7ACFE08BD08B50248FCF74CFDD8
:105A100008BD00BFCC4000200F49D1F8883043F4C6
:105A20007003C1F888300D4B1A6842F001021A6009
:105A3000002098601A6822F0847222F480321A6082
:105A4000074A5A601A6822F480221A60D8604FF020
:105A500000638B60704700BF00ED00E0003802403B
:105A600010300024DFF834D0002103E00C4B5B58E9
:105A7000435004310B480C4B42189A42F6D30B4A60
:105A800002E0002342F8043B094B9A42F9D3FFF7A6
:105A9000C3FF01F01BF9FFF797FE704700000220DB
:105AA000B87800080000002020020020200200201A
:105AB00018410020FEE700002DE9F04F2DED028B8C
:105AC000DFF824A38BB057EC106B55EC114B00F0B2
:105AD0008FF99AF90080B0EE408AF0EE608AB8F152
